:100000000C945D000C9425040C94FE030C94850064
:100010000C9485000C9485000C9485000C9485004C
:100020000C9485000C9485000C9485000C9485003C
:100030000C9485000C9485000C9485000C9485002C
:100040000C94B4030C9485000C9482030C945C0310
:100050000C9485000C9485000C9485000C9485000C
:100060000C9485000C9485000000000024002700FB
:100070002A0000000000250028002B0004040404CE
:100080000404040402020202020203030303030342
:10009000010204081020408001020408102001021F
:1000A00004081020000000080002010000030407FB
:1000B0000000000000000000EC0611241FBECFEF7E
:1000C000D8E0DEBFCDBF11E0A0E0B1E0E2E5F1E1B4
:1000D00002C005900D92AA33B107D9F721E0AAE337
:1000E000B1E001C01D92A83EB207E1F710E0CDE5F6
:1000F000D0E004C02197FE010E947C07CC35D107D7
:10010000C9F70E944C040C94A7080C940000AF920D
:10011000BF92CF92DF92EF92FF920F931F93CF93F4
:10012000DF936C017B018B01040F151FEB015E0156
:10013000AE18BF08C017D10759F06991D601ED91EB
:10014000FC910190F081E02DC6010995892B79F78A
:10015000C501DF91CF911F910F91FF90EF90DF903C
:10016000CF90BF90AF900895FC01538D448D252F03
:1001700030E0842F90E0821B930B541710F0CF9641
:10018000089501970895FC01918D828D981761F073
:10019000A28DAE0FBF2FB11D5D968C91928D9F5F8A
:1001A0009F73928F90E008958FEF9FEF0895FC0169
:1001B000918D828D981731F0828DE80FF11D858D1C
:1001C00090E008958FEF9FEF0895FC01918D228DAF
:1001D000892F90E0805C9F4F821B91098F73992734
:1001E000089587E491E00E94E50021E0892B09F45D
:1001F00020E0822F089580E090E0892B29F00E9472
:10020000F10081110C9400000895FC01A48DA80F49
:10021000B92FB11DA35ABF4F2C91848D90E0019648
:100220008F739927848FA689B7892C93A089B18968
:100230008C91837080648C93938D848D981306C009
:100240000288F389E02D80818F7D80830895EF926D
:10025000FF920F931F93CF93DF93EC0181E0888F80
:100260009B8D8C8D98131AC0E889F989808185FF50
:1002700015C09FB7F894EE89FF896083E889F989F2
:1002800080818370806480839FBF81E090E0DF91F4
:10029000CF911F910F91FF90EF900895F62E0B8D47
:1002A00010E00F5F1F4F0F731127E02E8C8D8E1102
:1002B0000CC00FB607FCFACFE889F989808185FF69
:1002C000F5CFCE010E940501F1CFEB8DEC0FFD2F94
:1002D000F11DE35AFF4FF0829FB7F8940B8FEA8924
:1002E000FB8980818062CFCFCF93DF93EC01888D33
:1002F0008823B9F0AA89BB89E889F9898C9185FDA1
:1003000003C0808186FD0DC00FB607FCF7CF8C912E
:1003100085FFF2CF808185FFEDCFCE010E940501E0
:10032000E9CFDF91CF91089590E0FC01EC55FF4FAC
:100330002491FC01E057FF4F3491FC01E458FF4F3A
:10034000E491EE23C9F0222339F0233001F1A8F41F
:10035000213019F1223029F1F0E0EE0FFF1FEE58A5
:10036000FF4FA591B4918FB7F894EC91611126C01D
:1003700030953E233C938FBF08952730A9F0283055
:10038000C9F0243049F7809180008F7D03C08091AF
:1003900080008F7780938000DFCF84B58F7784BD16
:1003A000DBCF84B58F7DFBCF8091B0008F778093BA
:1003B000B000D2CF8091B0008F7DF9CF3E2BDACF45
:1003C000CF93DF9390E0FC01E057FF4F24918458D6
:1003D0009F4FFC0184918823D1F090E0880F991FF2
:1003E000FC01E859FF4FA591B491FC01EE58FF4F75
:1003F000C591D49161110EC09FB7F8948C91E22FF2
:10040000E0958E238C932881E223E8839FBFDF91C0
:10041000CF9108958FB7F894EC91E22BEC938FBFB6
:10042000F6CF1F93CF93DF93182FEB0161E00E946B
:10043000E001209739F460E0812FDF91CF911F9187
:100440000C949401CF3FD10511F461E0F5CFE12F79
:10045000F0E0EC55FF4FE491E33031F140F4E1304E
:10046000B1F0E230E1F0C038D1057CF7E4CFE730FD
:1004700029F1E83059F1E430B1F7809180008062D1
:1004800080938000D0938B00C0938A0004C084B511
:10049000806884BDC7BDDF91CF911F91089584B559
:1004A000806284BDC8BDF7CF809180008068809352
:1004B0008000D0938900C0938800EDCF8091B00078
:1004C00080688093B000C093B300E5CF8091B00006
:1004D00080628093B000C093B400DDCF3FB7F89442
:1004E00080913F0190914001A0914101B091420162
:1004F00026B5A89B05C02F3F19F00196A11DB11D7F
:100500003FBFBA2FA92F982F8827BC01CD01620FBA
:10051000711D811D911D42E0660F771F881F991F75
:100520004A95D1F7089508950F931F93CF93DF93C2
:10053000C0914501D0914601209759F10E946E0269
:100540008B019C018A899B89AC89BD89B901A8016D
:10055000481B590B6A0B7B0B4E8B5F8B688F798F17
:100560008A819B81FC013296EE0FFF1FEC0FFD1F6D
:100570005183408301968730910584F44938534173
:100580006105710558F49B838A830A8B1B8B2C8B26
:100590003D8BDF91CF911F910F9108951B821A829D
:1005A000F4CF8F929F92AF92BF920F931F93CF93EE
:1005B000DF93CDB7DEB7A1970FB6F894DEBF0FBEBD
:1005C000CDBF19A2423008F44AE08E010F5D1F4FE3
:1005D000842E912CB12CA12CA50194010E944B07D3
:1005E000E62FB901CA01EA3044F5E05DD801EE9387
:1005F0008D01232B242B252B79F790E080E0109799
:1006000069F0FD0101900020E9F73197AF014A1B25
:100610005B0BBD0187E491E00E948700A1960FB6B5
:10062000F894DEBF0FBECDBFDF91CF911F910F9128
:10063000BF90AF909F908F900895E95CD7CFFC0159
:1006400001900020E9F73197AF01481B590BBC011D
:1006500087E491E00C948700CF92DF92EF92FF92B3
:10066000CF93DF936C01990FEE08FF08F7FE19C0D6
:100670006DE287E491E00E942701EC01662777276D
:10068000CB016C197D098E099F094AE00E94D102B5
:100690008C0F9D1FDF91CF91FF90EF90DF90CF9057
:1006A00008954AE0C701B601DF91CF91FF90EF9026
:1006B000DF90CF900C94D1021F920F920FB60F9241
:1006C00011242F933F934F935F936F937F938F9357
:1006D0009F93AF93BF93EF93FF9387E491E00E94C2
:1006E0000501FF91EF91BF91AF919F918F917F9104
:1006F0006F915F914F913F912F910F900FBE0F908F
:100700001F9018951F920F920FB60F9211242F93DE
:100710008F939F93EF93FF93E0915701F0915801CE
:100720008081E0915D01F0915E0182FD1BC09081AE
:10073000809160018F5F8F7320916101821741F07A
:10074000E0916001F0E0E95BFE4F958F80936001DE
:10075000FF91EF919F918F912F910F900FBE0F906E
:100760001F9018958081F4CF1F920F920FB60F92B1
:1007700011242F933F938F939F93AF93BF938091B7
:100780003B0190913C01A0913D01B0913E0130911F
:100790003A0123E0230F2D3758F50196A11DB11D15
:1007A00020933A0180933B0190933C01A0933D013B
:1007B000B0933E0180913F0190914001A091410191
:1007C000B09142010196A11DB11D80933F0190930C
:1007D0004001A0934101B0934201BF91AF919F911D
:1007E0008F913F912F910F900FBE0F901F901895F2
:1007F00026E8230F0296A11DB11DD2CF1F920F92A2
:100800000FB60F9211242F933F934F935F936F93E3
:100810007F938F939F93AF93BF93EF93FF93E09159
:100820000201F09103010995FF91EF91BF91AF9102
:100830009F918F917F916F915F914F913F912F91F8
:100840000F900FBE0F901F9018951F920F920FB62A
:100850000F9211242F933F934F935F936F937F9346
:100860008F939F93AF93BF93EF93FF93E09100011A
:10087000F09101010995FF91EF91BF91AF919F9187
:100880008F917F916F915F914F913F912F910F9039
:100890000FBE0F901F901895CF93DF9300D000D01C
:1008A000CDB7DEB7789484B5826084BD84B58160AD
:1008B00084BD85B5826085BD85B5816085BD80912B
:1008C0006E00816080936E001092810080918100A3
:1008D000826080938100809181008160809381009B
:1008E000809180008160809380008091B10084605D
:1008F0008093B1008091B00081608093B0008091BE
:100900007A00846080937A0080917A00826080937C
:100910007A0080917A00816080937A0080917A00D9
:10092000806880937A001092C100E0915701F091A5
:10093000580182E08083E0915301F09154011082CC
:10094000E0915501F091560187E0808310925F019C
:10095000E0915B01F0915C0186E08083E0915901B8
:10096000F0915A01808180618083E0915901F0917A
:100970005A01808188608083E0915901F0915A0189
:10098000808180688083E0915901F0915A018081D3
:100990008F7D808361E087E00E94E00161E088E074
:1009A0000E94E00161E08AE00E94E00161E08BE0EA
:1009B0000E94E00161E08CE00E94E00182E090E0B2
:1009C0000E9482079A8389838DE090E0E981FA8111
:1009D0009183808361E00E94E00189819A819093F4
:1009E0004401809343018AE190E00E9482079A8348
:1009F000898382E090E0E981FA8191838083138288
:100A00001282128A138A148A158A168A178A108EFD
:100A1000118E60E00E94E00184E992E09093010170
:100A200080930001809169008C7F826080936900CF
:100A3000E89A89819A8190934601809345019FE7C6
:100A4000892E912CA12CB12C20E0222E20E0322ED8
:100A5000E0914501F091460184819581813DE7E077
:100A60009E0714F080ED97E0883EF3E09F0714F4B2
:100A700088EE93E00E942C038CE191E00E941F031A
:100A8000E0914501F091460186819781813D27E003
:100A9000920714F080ED97E0883EE3E09E0714F49F
:100AA00088EE93E00E942C038CE191E00E941F03EA
:100AB000E0914501F091460180859185813DF7E007
:100AC0009F0714F080ED97E0883E23E0920714F42E
:100AD00088EE93E00E942C038CE191E00E941F03BA
:100AE000E0914501F091460182859385813DE7E0E3
:100AF0009E0714F080ED97E0883EF3E09F0714F422
:100B000088EE93E00E942C038CE191E00E941F0389
:100B1000E0914501F091460184859585813D27E06E
:100B2000920714F080ED97E0883EE3E09E0714F40E
:100B300088EE93E00E942C038CE191E00E941F0359
:100B4000E0914501F091460186859785813DF7E06A
:100B50009F0714F080ED97E0883E23E0920714F49D
:100B600088EE93E00E942C038DE291E00E941F0327
:100B7000E0914501F091460184859585E09143011E
:100B8000F09144018C3D95400CF4E1C060E080811F
:100B90000E9494018EE191E00E941F038091450123
:100BA000909146019A838983FC0124813581213DFE
:100BB000F7E03F0714F020ED37E0283E83E03807E8
:100BC00014F428EE33E0032E000C440B550B285E82
:100BD000334041095109AFEFB0E00E94380728EED9
:100BE00033E040E050E00E94190769017A01890171
:100BF000E981FA8126813781213DF7E03F0714F032
:100C000020ED37E0283E83E0380714F428EE33E087
:100C1000032E000C440B550B285E3340410951094B
:100C2000AFEFB0E00E94380728EE33E040E050E03C
:100C30000E94190729833A834B835C83205831092A
:100C400041095109AFEFB0E00E9438072B013C0188
:100C5000E981FA81E138F1050CF480C060E087E0B9
:100C60000E94940161E088E00E949401C301B201F6
:100C7000A50194010E9419073A832983A7019601CF
:100C80002058310941095109A981BA810E944307BD
:100C90006B017C01013811050CF478C08FE291E002
:100CA0000E941F038DE291E00E941F03C701B6015D
:100CB000A50194010E941907E980FA80E21AF30A5B
:100CC000C980DA8089819A810E942C038DE291E0AB
:100CD0000E941F0389819A8144970CF475C0B60164
:100CE0008AE00E941102B7018BE00E9411020E946B
:100CF0006E022B013C0182E3C82ED12CE12CF12C99
:100D00000E946E026419750986099709683E73404E
:100D100081059105A8F391E0C91AD108E108F1080D
:100D2000E8EE4E0EE3E05E1E611C711CC114D1049E
:100D3000E104F10429F72114310409F489CE0E9459
:100D4000F100882309F484CE0E94000081CE61E086
:100D500080810E94940187E291E01ECF61E087E0EC
:100D60000E94940160E088E00E949401C301B201F6
:100D700020E830E040E050E00E941907509540958F
:100D8000309521953F4F4F4F5F4F76CF85E391E0F0
:100D90000E941F038DE291E00E941F03C701B6016C
:100DA00020E830E040E050E00E941907509540955F
:100DB000309521953F4F4F4F5F4FC980DA80C21A5F
:100DC000D30AE980FA807ECF70E060E08AE00E947A
:100DD000110270E060E088CFE7E4F1E01382128254
:100DE00088EE93E0A0E0B0E084839583A683B78388
:100DF0008EE091E09183808385EC90E095878487F5
:100E000084EC90E09787868780EC90E0918B808BD4
:100E100081EC90E0938B828B82EC90E0958B848BBD
:100E200086EC90E0978B868B118E128E138E148E2B
:100E30000895052E97FB1EF400940E94300757FD7D
:100E400007D00E944B0707FC03D04EF40C943007E8
:100E500050954095309521953F4F4F4F5F4F0895E6
:100E600090958095709561957F4F8F4F9F4F089516
:100E70000E946D07A59F900DB49F900DA49F800DBB
:100E8000911D11240895B7FF0C9438070E9438076C
:100E9000821B930B0895A1E21A2EAA1BBB1BFD0116
:100EA0000DC0AA1FBB1FEE1FFF1FA217B307E40749
:100EB000F50720F0A21BB30BE40BF50B661F771FA1
:100EC000881F991F1A9469F7609570958095909581
:100ED0009B01AC01BD01CF010895A29FB001B39F5A
:100EE000C001A39F700D811D1124911DB29F700D33
:100EF000811D1124911D0895EE0FFF1F0590F4919F
:100F0000E02D09940F931F93CF93DF9382309105C7
:100F100010F482E090E0E091E601F091E70130E02A
:100F200020E0B0E0A0E0309799F42115310509F4F4
:100F30004AC0281B390B24303105D8F58A819B81A2
:100F40006115710589F1FB0193838283FE0111C054
:100F5000408151810281138148175907E0F04817F9
:100F6000590799F4109761F012960C931297139603
:100F70001C933296CF01DF91CF911F910F9108956D
:100F80000093E6011093E701F4CF2115310551F0EC
:100F90004217530738F0A901DB019A01BD01DF01B7
:100FA000F801C1CFEF01F9CF9093E7018093E601FB
:100FB000CDCFFE01E20FF31F8193919322503109AF
:100FC00039832883D7CF2091E4013091E501232B89
:100FD00041F420910601309107013093E5012093FF
:100FE000E40120910401309105012115310541F4FE
:100FF0002DB73EB74091080150910901241B350BD4
:10100000E091E401F091E501E217F307A0F42E1B53
:101010003F0B2817390778F0AC014E5F5F4F24175C
:10102000350748F04E0F5F1F5093E5014093E401F0
:10103000819391939FCFF0E0E0E09CCFCF93DF933B
:101040000097E9F0FC01329713821282A091E60129
:10105000B091E701ED0130E020E01097A1F420818C
:101060003181820F931F2091E4013091E50128170F
:10107000390709F061C0F093E501E093E401DF91E5
:10108000CF910895EA01CE17DF07E8F54A815B8129
:101090009E0141155105B1F7E901FB83EA834991AE
:1010A0005991C40FD51FEC17FD0761F48081918120
:1010B0000296840F951FE901998388838281938129
:1010C0009B838A83F0E0E0E012968D919C911397C8
:1010D0000097B9F52D913C911197CD010296820FA1
:1010E000931F2091E4013091E5012817390739F663
:1010F000309751F51092E7011092E601B093E501A7
:10110000A093E401BCCFD383C28340815181840F7B
:10111000951FC817D90761F44E5F5F4F8881998189
:10112000480F591F518340838A819B819383828317
:101130002115310509F0B0CFF093E701E093E60106
:101140009ECFFD01DC01C0CF13821282D7CFF8946D
:02115000FFCFCF
:10115200930293020000E8018000000000002701D2
:101162008700B4007401E500C300D70009004449B8
:101172005341424C450A00454E41424C450A0052F9
:0A11820049474854004C454654000C
:107E0000112484B714BE81FFF0D085E080938100F7
:107E100082E08093C00088E18093C10086E0809377
:107E2000C20080E18093C4008EE0C9D0259A86E02C
:107E300020E33CEF91E0309385002093840096BBD3
:107E4000B09BFECF1D9AA8958150A9F7CC24DD24C4
:107E500088248394B5E0AB2EA1E19A2EF3E0BF2EE7
:107E6000A2D0813461F49FD0082FAFD0023811F036
:107E7000013811F484E001C083E08DD089C08234E0
:107E800011F484E103C0853419F485E0A6D080C0E4
:107E9000853579F488D0E82EFF2485D0082F10E0AE
:107EA000102F00270E291F29000F111F8ED06801E7
:107EB0006FC0863521F484E090D080E0DECF843638
:107EC00009F040C070D06FD0082F6DD080E0C81688
:107ED00080E7D80618F4F601B7BEE895C0E0D1E017
:107EE00062D089930C17E1F7F0E0CF16F0E7DF06D8
:107EF00018F0F601B7BEE89568D007B600FCFDCFD4
:107F0000A601A0E0B1E02C9130E011968C91119780
:107F100090E0982F8827822B932B1296FA010C0160
:107F200087BEE89511244E5F5F4FF1E0A038BF0790
:107F300051F7F601A7BEE89507B600FCFDCF97BE46
:107F4000E89526C08437B1F42ED02DD0F82E2BD052
:107F50003CD0F601EF2C8F010F5F1F4F84911BD097
:107F6000EA94F801C1F70894C11CD11CFA94CF0C13
:107F7000D11C0EC0853739F428D08EE10CD085E9AC
:107F80000AD08FE07ACF813511F488E018D01DD067
:107F900080E101D065CF982F8091C00085FFFCCF94
:107FA0009093C60008958091C00087FFFCCF809118
:107FB000C00084FD01C0A8958091C6000895E0E648
:107FC000F0E098E1908380830895EDDF803219F02E
:107FD00088E0F5DFFFCF84E1DECF1F93182FE3DFCA
:107FE0001150E9F7F2DF1F91089580E0E8DFEE27F6
:047FF000FF270994CA
:027FFE00040479
:0400000300007E007B
:00000001FF